:020000040000FA
:10000000B2013529A501A400B3172730A300103091
:1000100015200330A300E8301520A301643015201B
:10002000A3010A30152024082028A2002508A100D9
:100030002408A000F9202008031DB313B31B0800F7
:10004000303E23280408A7008711071007108316E5
:100050008711071007100F30870583122708B21881
:100060004E283A30A100FC30C0203330A600622078
:100070001030A1006830C02062206430BF202230E0
:10008000A600622028304D200C304D2001304D203C
:1000900006304D20B21427084E283214A600321C18
:1000A0005C280710033C031C612861200530A10077
:1000B000DC30C020031408003214FE3C0319302940
:1000C0000714321C321087150F3087052608F039C7
:1000D00087048711A60E321862282C30BF20031423
:1000E0000800B31329080319B3170530A8002730F7
:1000F000A300103087200330A300E8308720A3013D
:1001000064308720A3010A30872024088E28A200AB
:100110002508A1002408A000F9202008A000A803B9
:100120000319B31329080319982828020318080093
:100130002008031DB313B31B0800303E2B29A00079
:10014000A00DA00D200D3839C1389F000030A1004E
:100150003230C0201F151F19AB281E08A1008316BE
:100160001E083029A301A200FF30A207031CA30729
:10017000031C30290330A100DF30C020B428A101C6
:10018000E83EA000A109FC30031CC928A007031801
:10019000C628A0076400A10FC6282018CF28A01CDD
:1001A000D3280000D3280800A101A301A200033036
:1001B000E228A2000130E228A2000630E228A200D4
:1001C0000430E228A80023082102031DE9282208A0
:1001D0002002043003180130031902302805031DE2
:1001E000FF3030290038031DFF300405031DFF30A8
:1001F0003029A501A4011030A600210DA40DA50DE4
:100200002208A4022308031C230FA50203180F29A8
:100210002208A40723080318230FA5070310A00D25
:10022000A10DA60BFD28200830291030A800A1013F
:10023000A001A70CA60C031C23292208A007230851
:100240000318230FA107A10CA00CA50CA40CA80B4C
:10025000192924083029840031088A0030088200D6
:1002600083130313831264000800831680309F00F9
:1002700017308500FF3086003830870083120A303F
:10028000BE00BF010330BC00BD01D901D801860109
:100290008501CE01CF01DE0164308A01B220FE303B
:1002A0008A01232001308A012320FE308A01232085
:1002B00080308A0123202D308A01232043308A0197
:1002C000232074308A01232072308A0123206C306D
:1002D0008A01232020308A01232042308A012320F2
:1002E0006F308A0123206D308A01232062308A0119
:1002F000232061308A01232020308A0123205330BB
:100300008A0123204F308A0123204C308A01232088
:1003100041308A01232052308A01232076308A011D
:10032000232031308A0123202D308A012320FE3002
:100330008A012320C0308A0123202D308A01232006
:1003400020308A01232020308A01232020308A0196
:10035000232045308A01232053308A012320433053
:100360008A0123204F308A01232044308A01232030
:1003700041308A01232020308A01232053308A0112
:10038000232052308A0123204C308A0123202E3032
:100390008A01232020308A01232020308A01232053
:1003A00020308A01232020308A0123202D308A0129
:1003B0002320FE308A01232094308A0123202A3012
:1003C0008A01232049308A0123204E308A012320CC
:1003D00049308A01232043308A01232049308A0191
:1003E00023204F308A01232020308A01232020300F
:1003F0008A01232028308A01232053308A012320B8
:1004000054308A01232041308A01232052308A014E
:10041000232054308A01232029308A0123202030D0
:100420008A01232020308A01232020308A012320C2
:1004300020308A012320FE308A012320D4308A0113
:1004400023202A308A01232043308A0123204F3081
:100450008A0123204E308A01232046308A0123203E
:1004600049308A01232047308A01232020308A0125
:10047000232020308A01232020308A0123202830A5
:100480008A01232053308A01232054308A012320FB
:100490004F308A01232050308A01232029308A01DD
:1004A000232020308A01232020308A01232020307D
:1004B0008A01232020308A01232064008A110A1235
:1004C0000618712AFE308A01232001308A01232078
:1004D00087148316871083120130DB008A110A12F9
:1004E000DF2E64008A110A1286187F2AFE308A01E4
:1004F000232001308A0123208A110A12812A8A01CD
:100500005529FE308A01232002308A0123204330FE
:100510008A0123206F308A0123206E308A01232034
:1005200066308A01232069308A01232067308A01DE
:10053000232020308A01232064308A012320653063
:100540008A01232020308A01232043308A0123207E
:100550004F308A01232052308A01232054308A01EF
:10056000232045308A01232020308A012320FE30B9
:100570008A012320C0308A01232042308A012320AF
:1005800041308A0123204A308A01232041308A01E8
:10059000232020308A01232054308A012320453033
:1005A0008A0123204E308A01232053308A012320E0
:1005B00049308A0123204F308A0123204E308A019E
:1005C00023203A308A01232020308A012320203042
:1005D0008A01232020308A012320FE308A01232033
:1005E00094308A01232020308A01232020308A0180
:1005F000232020308A01232020308A01232020302C
:100600008A01232020308A01232020308A012320E0
:1006100020308A01232020308A01232020308A01C3
:10062000232020308A01232020308A0123202030FB
:100630008A01232020308A01232020308A012320B0
:1006400020308A012320FE308A012320D4308A0101
:1006500023200230A9003E08A4003F08A500223054
:10066000B000B1018A0171202C308A0123200130B1
:10067000A9005908A400A5012230B000B1018A01E7
:10068000712056308A01232064008A110A1206194B
:10069000692B0130A300F4308A01B320D90A640029
:1006A0000A3059028A110A12031C5A2BD901BE0AB8
:1006B0000319BF0A3E08A0003F08A100A3010E30A5
:1006C0008A01DC208A110A12031D692B0E30BE003C
:1006D000BF0164008A110A128619B12B0130A300F0
:1006E000F4308A01B320640059080A3C8A110A12C6
:1006F000031D922B0130BE020030031C013EBF02DD
:100700003E08A0003F08A100A30101308A01D620C5
:100710008A110A12031D8F2B0A30BE00BF018A11F5
:100720000A12B12BD9036400013059028A110A124E
:100730000318A22B0A30D9000130BE020030031C7E
:10074000013EBF023E08A0003F08A100A301013006
:100750008A01D9208A110A12031DB12B0130BE0073
:10076000BF0164008A110A12061AC52B64308A017F
:10077000B220FE308A01232001308A0123208A1111
:100780000A12FB248A110A12C72B8A01812AFE3021
:100790008A01232002308A01232043308A0123204A
:1007A0006F308A0123206E308A01232066308A014F
:1007B000232069308A01232067308A0123202030DA
:1007C0008A01232064308A01232065308A01232096
:1007D00020308A01232043308A0123204F308A01B0
:1007E000232052308A01232054308A0123204530AF
:1007F0008A01232020308A012320FE308A01232011
:10080000C0308A01232053308A0123204F308A01CF
:10081000232042308A01232052308A012320453090
:100820008A01232020308A01232043308A0123209B
:100830004F308A01232052308A01232052308A010E
:10084000232049308A01232045308A0123204E305D
:100850008A01232054308A01232045308A01232035
:100860003A308A012320FE308A01232094308A0105
:10087000232020308A01232020308A0123202030A9
:100880008A01232020308A01232020308A0123205E
:1008900020308A01232020308A01232020308A0141
:1008A000232020308A01232020308A012320203079
:1008B0008A01232020308A01232020308A0123202E
:1008C00020308A01232020308A01232020308A0111
:1008D0002320FE308A012320D4308A0123200230D5
:1008E000A9003C08A4003D08A5002230B000B101D9
:1008F0008A0171202C308A0123200230A900580877
:10090000A400A5012230B000B1018A01712041305C
:100910008A01232064008A110A120619B02C0130C2
:10092000A300F4308A01B3200A30D80764005808C5
:10093000643C8A110A12031DB02CD801BC0A0319A9
:10094000BD0A3C08A0003D08A100A3010A308A01AD
:10095000DC208A110A12031DB02C0A30BC00BD0134
:1009600064008A110A128619E62C0130A300F430C3
:100970008A01B32064005808003C8A110A12031D42
:10098000C62C5A30D8008A110A12E62C0A30D80236
:1009900064005808003C8A110A12031DE62C6430DA
:1009A000D8000130BC020030031C013EBD023C08EF
:1009B000A0003D08A100A30101308A01D9208A11BD
:1009C0000A12031DE62C0130BC00BD0164008A112F
:1009D0000A12061AF92C64308A01B220FE308A010C
:1009E000232001308A0123208A110A12FB248A0164
:1009F00055298A01C72B64008A110A12061EFB2C96
:100A000008000130DB0000308A019F20C20021086D
:100A1000C3004208B8004308B90064008A110A12F2
:100A20001F190D2D05308A01B2208A150A12E722FE
:100A300001308A019F20C2002108C30005308A01CD
:100A4000B2208A150A122023FE308A0123200230A8
:100A50008A01232056308A0123203D308A01232039
:100A6000A9014E08A4004F08A5002230B000B10132
:100A70008A0171202C308A0123200130A9006108ED
:100A8000A400A5012230B000B1018A0171202030FC
:100A90008A01232041308A0123203D308A0123200E
:100AA0000230A9003A08A4003B08A5002230B0009B
:100AB000B1018A0171202C308A0123200230A90063
:100AC0006008A400A5012230B000B1018A017120A4
:100AD000FE308A012320C0308A01232045308A015C
:100AE000232053308A01232054308A0123204130AF
:100AF0008A01232044308A0123204F308A01232099
:100B000028308A01232046308A01232031308A018F
:100B1000232029308A0123203A308A0123203E08ED
:100B2000A0003F08A1004F08A3004E088A01D6206C
:100B30008A110A12031D2E2E871483168710831222
:100B40000130DB00FE308A01232094308A0123200B
:100B500020308A01232020308A01232020308A017E
:100B6000232020308A01232020308A0123202030B6
:100B70008A01232020308A01232042308A01232049
:100B80004F308A0123204D308A01232042308A01D0
:100B9000232041308A01232020308A012320203065
:100BA0008A01232020308A01232020308A0123203B
:100BB00020308A01232020308A01232020308A011E
:100BC000232020308A012320FE308A012320D430C4
:100BD0008A01232020308A01232020308A0123200B
:100BE00020308A01232020308A01232020308A01EE
:100BF000232045308A0123204E308A0123204330B0
:100C00008A01232045308A0123204E308A01232087
:100C100044308A01232049308A01232044308A014C
:100C2000232041308A01232021308A0123202030D3
:100C30008A01232020308A01232020308A012320AA
:100C400020308A01232020308A0123200730A3008E
:100C5000D0308A01B3208A110A12DF2E3E08A0008C
:100C60003F08A1004F08A3004E088A01D620CA0001
:100C70005908A00061088A01D420CC004A088400E9
:100C80004C088A01F220CC00CD0064004C084D04D1
:100C90008A110A120319DD2E87108316871083121A
:100CA000DB01FE308A01232094308A01232020308A
:100CB0008A01232020308A01232020308A0123202A
:100CC00042308A0123204F308A0123204D308A018F
:100CD000232042308A01232041308A012320203002
:100CE0008A01232020308A01232041308A012320D9
:100CF00050308A01232041308A01232047308A0165
:100D0000232041308A01232044308A0123204130AE
:100D10008A01232020308A01232020308A012320C9
:100D200020308A012320FE308A012320D4308A011A
:100D3000232020308A01232020308A0123205030B4
:100D40008A0123204F308A01232052308A01232038
:100D500020308A01232042308A01232041308A0139
:100D600023204A308A01232041308A012320203069
:100D70008A01232054308A01232045308A01232010
:100D80004E308A01232053308A01232049308A01C2
:100D900023204F308A0123204E308A012320203027
:100DA0008A01232020308A0123200730A300D0307D
:100DB0008A01B3208A110A12DF2E8A01012D013027
:100DC000DB0000308A019F20C2002108C3004208D6
:100DD000B8004308B90064008A110A121F19EB2EEB
:100DE00005308A01B2208A150A12E72201308A01F1
:100DF0009F20C2002108C30005308A01B2208A1555
:100E00000A1220238A110A120C270130A300F430A1
:100E10008A01B3208A01DF2EFE308A0123200230AE
:100E20008A01232056308A0123203D308A01232065
:100E3000A9014E08A4004F08A5002230B000B1015E
:100E40008A0171202C308A0123200130A900610819
:100E5000A400A5012230B000B1018A017120203028
:100E60008A01232041308A0123203D308A0123203A
:100E70000230A9003A08A4003B08A5002230B000C7
:100E8000B1018A0171202C308A0123200230A9008F
:100E90006008A400A5012230B000B1018A017120D0
:100EA000FE308A012320C0308A01232045308A0188
:100EB000232053308A01232054308A0123204130DB
:100EC0008A01232044308A0123204F308A012320C5
:100ED00028308A01232046308A01232032308A01BB
:100EE000232029308A0123203A308A0123203E081A
:100EF000A0003F08A1004F08A3004E088A01D62099
:100F0000CA005908A00061088A01D420CC004A0810
:100F100084004C088A01F220CC00CD0064004C080B
:100F20004D048A150A120319252887108316871085
:100F30008312DB01FE308A01232094308A012320B2
:100F400020308A01232020308A01232020308A018A
:100F5000232042308A0123204F308A0123204D3044
:100F60008A01232042308A01232041308A01232034
:100F700020308A01232020308A01232041308A0139
:100F8000232050308A01232041308A01232047301A
:100F90008A01232041308A01232044308A01232002
:100FA00041308A01232020308A01232020308A0109
:100FB000232020308A012320FE308A012320D430D0
:100FC0008A01232020308A01232020308A01232017
:100FD00050308A0123204F308A01232052308A0169
:100FE000232020308A01232042308A0123204130EF
:100FF0008A0123204A308A01232041308A0123209C
:1010000020308A01232054308A01232045308A0170
:1010100023204E308A01232053308A012320493077
:101020008A0123204F308A0123204E308A01232059
:1010300020308A01232020308A0123200330A3009E
:10104000E8308A01B3208A01012D64008A150A1252
:10105000861FB8288710831687108312DB01FE30A5
:101060008A01232094308A01232020308A01232002
:1010700020308A01232020308A01232042308A0137
:1010800023204F308A0123204D308A012320423013
:101090008A01232041308A01232020308A01232025
:1010A00020308A01232041308A01232050308A01D8
:1010B000232041308A01232047308A0123204130F8
:1010C0008A01232044308A01232041308A012320D1
:1010D00020308A01232020308A01232020308A01F9
:1010E0002320FE308A012320D4308A01232020309F
:1010F0008A01232020308A01232020308A012320E6
:1011000020308A0123204E308A01232049308A0171
:10111000232056308A01232045308A0123204C3079
:101120008A01232020308A0123204C308A01232089
:101130004C308A01232045308A0123204E308A0119
:1011400023204F308A01232020308A0123202030A1
:101150008A01232020308A01232020308A01232085
:1011600020308A0123201330A30088308A01B32065
:1011700064005B08003C8A150A12031DC0280800A1
:101180003A08A0003B08A1003D08A3003C088A01E2
:10119000DF208A150A12031DB029871083168710D5
:1011A0008312DB01FE308A012320C0308A01232014
:1011B00045308A01232053308A01232054308A018C
:1011C000232041308A01232044308A0123204F30DC
:1011D0008A0123203A308A01232020308A012320EB
:1011E00020308A01232020308A01232020308A01E8
:1011F000232028308A01232049308A0123203A30D5
:101200008A0123205E088A01022029308A012320D6
:10121000FE308A01232094308A01232020308A0165
:10122000232020308A01232020308A0123204230CD
:101230008A0123204F308A0123204D308A01232048
:1012400042308A01232041308A01232020308A0144
:10125000232020308A01232041308A01232050306E
:101260008A01232041308A01232047308A0123202C
:1012700041308A01232044308A01232041308A01F1
:10128000232020308A01232020308A01232020308F
:101290008A012320FE308A012320D4308A012320B2
:1012A00020308A01232020308A01232053308A01F4
:1012B00023204F308A01232042308A0123205230DC
:1012C0008A01232045308A01232020308A012320EF
:1012D00020308A01232043308A0123204F308A01A5
:1012E000232052308A01232052308A0123204930A2
:1012F0008A01232045308A0123204E308A01232091
:1013000054308A01232045308A01232020308A016D
:10131000232020308A0123200130DD0064000430C6
:101320005D028A150A1203189F291330A300883022
:101330008A01B320DD0A8A150A12031D8E29DE0AEE
:10134000640004305E028A150A12031CB029FE30C4
:101350008A01232001308A0123208A150A124C2B8E
:1013600064005B08003C8A150A12031DB8290800B6
:101370003E08A0003F08A1004F08A3004E088A01C4
:10138000D6208A150A12031D4F2A87148316871048
:1013900083120130DB00FE308A01232094308A0161
:1013A000232020308A01232020308A01232020306E
:1013B0008A01232020308A01232020308A01232023
:1013C00020308A01232020308A01232042308A01E4
:1013D00023204F308A0123204D308A0123204230C0
:1013E0008A01232041308A01232020308A012320D2
:1013F00020308A01232020308A01232020308A01D6
:10140000232020308A01232020308A01232020300D
:101410008A01232020308A012320FE308A012320E4
:10142000D4308A01232020308A01232020308A01F1
:10143000232020308A01232020308A0123202030DD
:101440008A01232045308A0123204E308A0123203F
:1014500043308A01232045308A0123204E308A01FF
:10146000232044308A01232049308A01232044303C
:101470008A01232041308A01232021308A01232040
:1014800020308A01232020308A01232020308A0145
:10149000232020308A01232020308A0123203A088B
:1014A000A0003B08A1003D08A3003C088A01D6200B
:1014B0008A150A12031DE62A8714831687108312E1
:1014C0000130DB00FE308A01232094308A01232082
:1014D00020308A01232020308A01232020308A01F5
:1014E000232020308A01232020308A01232020302D
:1014F0008A01232020308A01232042308A012320C0
:101500004F308A0123204D308A01232042308A0146
:10151000232041308A01232020308A0123202030DB
:101520008A01232020308A01232020308A012320B1
:1015300020308A01232020308A01232020308A0194
:10154000232020308A012320FE308A012320D4303A
:101550008A01232020308A01232020308A01232081
:1015600020308A01232020308A01232020308A0164
:10157000232045308A0123204E308A012320433026
:101580008A01232045308A0123204E308A012320FE
:1015900044308A01232049308A01232044308A01C3
:1015A000232041308A01232021308A01232020304A
:1015B0008A01232020308A01232020308A01232021
:1015C00020308A01232020308A01232008000130A6
:1015D0004207CA0043080318013ECB004A08A60090
:1015E0004B08A7006B30A2000330A3008A0115212D
:1015F0002508CA002008CB004A08A0004B08A1001B
:101600000A30A200A3018A01F920C4002108C50004
:101610004408A0004508A1000A30A200A3018A01E5
:10162000F920CE002108CF004408A0004508A10001
:101630000A30A200A3018A01F9202408E100080071
:1016400001304207CA0043080318013ECB004A0894
:10165000A6004B08A700FA30A200A3018A011521B9
:101660002508C4002008C5004408A0004508A100C2
:101670006430A200A3018A01F920BA002108BB004E
:101680004408A0004508A1006430A200A3018A011B
:10169000F9202408E0000800FE308A012320803071
:1016A0008A0123202A308A0123202A308A0123201C
:1016B0002A308A0123202A308A0123202A308A01F5
:1016C00023202A308A0123202A308A0123202A302D
:1016D0008A0123202A308A0123202A308A012320EC
:1016E0002A308A0123202A308A0123202A308A01C5
:1016F00023202A308A0123202A308A0123202A30FD
:101700008A0123202A308A0123202A308A012320BB
:101710002A308A0123202A308A012320FE308A01C0
:101720002320C0308A01232020308A01232020304A
:101730008A01232020308A01232020308A0123209F
:1017400020308A01232020308A01232046308A015C
:10175000232055308A01232045308A01232052302E
:101760008A01232041308A01232020308A0123204E
:1017700044308A01232045308A01232020308A0109
:10178000232020308A01232020308A01232020308A
:101790008A01232020308A0123202A308A01232035
:1017A000FE308A01232094308A0123202A308A01C6
:1017B000232020308A01232020308A01232020305A
:1017C0008A01232020308A01232020308A0123200F
:1017D00053308A01232045308A01232052308A0168
:1017E000232056308A01232049308A0123204330A8
:1017F0008A01232049308A0123204F308A01232087
:1018000020308A01232020308A01232020308A01C1
:10181000232020308A01232020308A0123202A30EF
:101820008A012320FE308A012320D4308A0123201C
:101830002A308A0123202A308A0123202A308A0173
:1018400023202A308A0123202A308A0123202A30AB
:101850008A0123202A308A0123202A308A0123206A
:101860002A308A0123202A308A0123202A308A0143
:1018700023202A308A0123202A308A0123202A307B
:101880008A0123202A308A0123202A308A0123203A
:101890002A308A0123202A308A0123202A308A0113
:0E18A00023202A308A0123208A150A124C2B9D
:02400E007D3FF4
:00000001FF
